{
    "contractName": "RentAcarContract",
    "abi": [
        {
            "inputs": [
                {
                    "internalType": "string",
                    "name": "_name",
                    "type": "string"
                },
                {
                    "internalType": "string",
                    "name": "_surname",
                    "type": "string"
                },
                {
                    "internalType": "string",
                    "name": "_dealerCompany",
                    "type": "string"
                },
                {
                    "internalType": "int256",
                    "name": "_price",
                    "type": "int256"
                },
                {
                    "internalType": "string",
                    "name": "_contractText",
                    "type": "string"
                },
                {
                    "internalType": "string",
                    "name": "_date",
                    "type": "string"
                }
            ],
            "stateMutability": "nonpayable",
            "type": "constructor"
        },
        {
            "inputs": [],
            "name": "getPrice",
            "outputs": [
                {
                    "internalType": "int256",
                    "name": "",
                    "type": "int256"
                }
            ],
            "stateMutability": "view",
            "type": "function"
        }
    ],
    "bytecode": "608060405234801561001057600080fd5b50604051610540380380610540833981810160405260c081101561003357600080fd5b810190808051604051939291908464010000000082111561005357600080fd5b90830190602082018581111561006857600080fd5b825164010000000081118282018810171561008257600080fd5b82525081516020918201929091019080838360005b838110156100af578181015183820152602001610097565b50505050905090810190601f1680156100dc5780820380516001836020036101000a031916815260200191505b50604052602001805160405193929190846401000000008211156100ff57600080fd5b90830190602082018581111561011457600080fd5b825164010000000081118282018810171561012e57600080fd5b82525081516020918201929091019080838360005b8381101561015b578181015183820152602001610143565b50505050905090810190601f1680156101885780820380516001836020036101000a031916815260200191505b50604052602001805160405193929190846401000000008211156101ab57600080fd5b9083019060208201858111156101c057600080fd5b82516401000000008111828201881017156101da57600080fd5b82525081516020918201929091019080838360005b838110156102075781810151838201526020016101ef565b50505050905090810190601f1680156102345780820380516001836020036101000a031916815260200191505b5060408181526020830151920180519294919391928464010000000082111561025c57600080fd5b90830190602082018581111561027157600080fd5b825164010000000081118282018810171561028b57600080fd5b82525081516020918201929091019080838360005b838110156102b85781810151838201526020016102a0565b50505050905090810190601f1680156102e55780820380516001836020036101000a031916815260200191505b506040526020018051604051939291908464010000000082111561030857600080fd5b90830190602082018581111561031d57600080fd5b825164010000000081118282018810171561033757600080fd5b82525081516020918201929091019080838360005b8381101561036457818101518382015260200161034c565b50505050905090810190601f1680156103915780820380516001836020036101000a031916815260200191505b506040525050600080546001600160a01b031916331790555085516103bd90600190602089019061041e565b5084516103d190600290602088019061041e565b50600483905581516103ea90600590602085019061041e565b5083516103fe90600390602087019061041e565b50805161041290600690602084019061041e565b505050505050506104b1565b828054600181600116156101000203166002900490600052602060002090601f016020900481019282601f1061045f57805160ff191683800117855561048c565b8280016001018555821561048c579182015b8281111561048c578251825591602001919060010190610471565b5061049892915061049c565b5090565b5b80821115610498576000815560010161049d565b6081806104bf6000396000f3fe6080604052348015600f57600080fd5b506004361060285760003560e01c806398d5fdca14602d575b600080fd5b60336045565b60408051918252519081900360200190f35b6004549056fea26469706673582212205d03b328cf8f8ba26ca34c8a829905caca107a6429acad1e590aca85847cb26864736f6c63430007000033",
    "sourcePath": "d:/Master_projekat/Front/Master-SmartContracts-with-BPMN-Front/Client/Blockchain/contracts/RentAcarContract.sol",
    "compiler": {
        "name": "solc",
        "version": "0.7.0+commit.9e61f92b"
    },
    "functionHashes": {
        "getPrice()": "98d5fdca"
    },
    "gasEstimates": {
        "creation": {
            "codeDepositCost": "25800",
            "executionCost": "infinite",
            "totalCost": "infinite"
        },
        "external": {
            "getPrice()": "976"
        }
    }
}