{
  "contractName": "RentAcarContract",
  "abi": [
    {
      "inputs": [],
      "payable": false,
      "stateMutability": "nonpayable",
      "type": "constructor"
    },
    {
      "constant": true,
      "inputs": [],
      "name": "getPrice",
      "outputs": [
        {
          "internalType": "string",
          "name": "",
          "type": "string"
        }
      ],
      "payable": false,
      "stateMutability": "view",
      "type": "function"
    }
  ],
  "bytecode": "0x608060405234801561001057600080fd5b506040518060400160405280600581526020017f5a6f726b610000000000000000000000000000000000000000000000000000008152506000908051906020019061005c9291906100b6565b506040518060400160405280600781526020017f4a6f636f76696300000000000000000000000000000000000000000000000000815250600190805190602001906100a89291906100b6565b50600a60038190555061015b565b828054600181600116156101000203166002900490600052602060002090601f016020900481019282601f106100f757805160ff1916838001178555610125565b82800160010185558215610125579182015b82811115610124578251825591602001919060010190610109565b5b5090506101329190610136565b5090565b61015891905b8082111561015457600081600090555060010161013c565b5090565b90565b61018a8061016a6000396000f3fe608060405234801561001057600080fd5b506004361061002b5760003560e01c806398d5fdca14610030575b600080fd5b6100386100b3565b6040518080602001828103825283818151815260200191508051906020019080838360005b8381101561007857808201518184015260208101905061005d565b50505050905090810190601f1680156100a55780820380516001836020036101000a031916815260200191505b509250505060405180910390f35b606060008054600181600116156101000203166002900480601f01602080910402602001604051908101604052809291908181526020018280546001816001161561010002031660029004801561014b5780601f106101205761010080835404028352916020019161014b565b820191906000526020600020905b81548152906001019060200180831161012e57829003601f168201915b505050505090509056fea265627a7a72315820f209d1504ca1a3cf2052100391f77faeda0b177fbafe168555625d66174c8a2f64736f6c63430005100032",
  "source": "pragma solidity >=0.5.16;\r\n \r\ncontract RentAcarContract {\r\n \r\n    string private customerName;\r\n    string private customerSurname;\r\n    string private dealerCompanyName;\r\n    int private price;\r\n    string private text;\r\n\r\n    constructor() public {\r\n        customerName = \"Zorka\";\r\n        customerSurname = \"Jocovic\";\r\n        price = 10;\r\n    }\r\n\r\n    function getPrice() public view returns(string memory){\r\n        return customerName;\r\n    }\r\n\r\n  \r\n}\r\n",
  "sourcePath": "D:/Master projekat/Front/Master-SmartContracts-with-BPMN-Front/Client/Blockchain/contracts/RentAcarContract.sol",
  "compiler": {
    "name": "solc",
    "version": "0.5.16+commit.9c3226ce.Emscripten.clang"
  },
  "schemaVersion": "3.2.4",
  "updatedAt": "2020-09-22T19:18:24.737Z",
  "devdoc": {
    "methods": {}
  },
  "userdoc": {
    "methods": {}
  }
}